:10400000D8020120F15B0000ED5B0000ED5B0000D9
:10401000ED5B0000ED5B0000ED5B000000000000C8
:10402000000000000000000000000000ED5B000048
:10403000ED5B000000000000ED5B0000ED5B0000A8
:10404000ED5B0000ED5B0000ED5B0000ED5B000050
:10405000ED5B0000ED5B0000ED5B0000ED5B000040
:10406000ED5B0000ED5B0000ED5B0000ED5B000030
:10407000ED5B0000ED5B0000ED5B0000ED5B000020
:10408000ED5B0000ED5B0000ED5B0000ED5B000010
:10409000ED5B0000ED5B0000ED5B0000ED5B000000
:1040A000ED5B0000ED5B0000ED5B0000ED5B0000F0
:1040B000ED5B0000ED5B0000ED5B0000ED5B0000E0
:1040C000ED5B0000ED5B0000ED5B0000ED5B0000D0
:1040D000ED5B0000ED5B0000ED5B0000ED5B0000C0
:1040E000ED5B0000ED5B0000000000000000000040
:1040F0000000000001550000ED5B0000ED5B0000DA
:10410000ED5B0000ED5B0000ED5B0000ED5B00008F
:10411000ED5B0000ED5B0000ED5B0000ED5B00007F
:10412000ED5B0000ED5B0000ED5B0000ED5B00006F
:10413000ED5B0000ED5B0000ED5B0000ED5B00005F
:10414000ED5B0000ED5B0000ED5B0000ED5B00004F
:10415000ED5B0000ED5B00000000000000000000CF
:10416000000000000000000000000000000000004F
:10417000000000000000000000000000000000003F
:10418000D1530000D9530000E1530000E95300006F
:1041900000000000ED5B0000ED5B0000ED5B000047
:1041A000ED5B0000ED5B0000ED5B0000ED5B0000EF
:1041B000ED5B0000ED5B0000ED5B0000ED5B0000DF
:1041C000ED5B0000ED5B0000ED5B0000ED5B0000CF
:1041D000ED5B000000000000000000000000000097
:1041E000000000000000000000000000ED5B000087
:1041F000ED5B0000ED5B0000ED5B000000000000E7
:10420000000000000000000000000000ED5B000066
:10421000ED5B0000ED5B0000ED5B0000ED5B00007E
:10422000ED5B0000ED5B0000ED5B0000ED5B00006E
:10423000ED5B0000ED5B0000ED5B0000ED5B00005E
:1042400000000000ED5B0000ED5B0000ED5B000096
:10425000ED5B0000ED5B0000ED5B0000ED5B00003E
:104260000000000010B5054C237833B9044B13B19E
:104270000448AFF300800123237010BD8016002096
:1042800000000000DC8D000008B5034B1BB10349A2
:104290000348AFF3008008BD000000008416002032
:1042A000DC8D00002DE9F34117460A78C2F3411373
:1042B000012B80460C4653D12C4B898818788842B4
:1042C0001E4602D05B788B424AD11306E5880FD593
:1042D000012F32D06378212B12D1072D43D12449ED
:1042E00000232A464046234CA04702B0BDE8F08197
:1042F000214B98476378202B014604D0222B23D0F2
:104300006FF00C00F1E7072D2DD117B93B462A4677
:10431000E8E7006800908B798A888DF80630336969
:10432000ADF804205BB9124B0098BDF804109DF85D
:104330000620C6F8060099809A710020D5E76846E5
:1043400098470028EFD1F8E700231A461946184687
:10435000084DA8477369002BEFD060889847ECE7B9
:104360006FF00900C1E74FF0FF30BEE79C16002058
:10437000A2160020E55D00000562000001292DE97C
:10438000F84F154654D007D302290CBF6FF01A001E
:104390006FF00C00BDE8F88F8768DFF804811068C3
:1043A0003E4610B96FF00900F4E74379827803F0D4
:1043B000F703022BF6D133789A4262D0FF2B63D1F8
:1043C00006F8012B05226968DFF8D890DFF8D8B02D
:1043D000C04704467CB92B686968187804221844E1
:1043E000C047BB1CF2B2DBB29A42DAD1294B0122A0
:1043F0005A712046CEE76179227994F802A0264BC3
:1044000002EB012292B2E1785046984700283ED153
:104410001AF0800F14BF86F801A087F804A0504658
:10442000C8472C60207869682044D8470446D1E703
:1044300084682AB113685B7903F0F703022BB1D1CA
:104440002378FF2B07D0A078FF25A842257002D043
:10445000124B9847A5706378FF2B07D0E078FF25B3
:10446000A842657002D00D4B9847E5702079FF286F
:1044700003D00A4B9847FF232371064B0020587145
:1044800088E76FF0110085E76FF01B0082E76FF09F
:1044900013007FE79C160020355800009558000057
:1044A00039550000C15800005355000008B50A4BAB
:1044B000984701280CD80948094BC0E90730183043
:1044C000084B984701200849084B9847002008BD31
:1044D0006FF01000FBE700BF116200009C16002087
:1044E0007D430000B9610000000000203161000040
:1044F00010B4084C63790A463BB101462079064C5A
:104500000023A4465DF8044B60476FF010005DF88F
:10451000044B70479C160020E55D000010B4084C69
:1045200063790A463BB10146E078064C0123A44674
:104530005DF8044B60476FF010005DF8044B704766
:104540009C160020E55D000008B50A46032814D833
:10455000DFE800F002090D10094B18790221094B20
:104560009847002008BD064B0221D878F7E7044B96
:104570001961F6E7024B5961F3E76FF00C00F1E7C0
:104580009C1600205D5A0000014B5879704700BF0F
:104590009C160020044B1968024609B903491960AA
:1045A000186802441A607047C0160020D802012023
:1045B00000207047074B93F82020D10706D51A69D1
:1045C00002F41062B2F5106FF9D170471A69D20582
:1045D000FCD570470010004010B109B10230C0B2E4
:1045E000142300FB0330014B18447047C41600200D
:1045F00030B4C17C857C01F0070305F00F02012B6C
:104600004FEA421402F108030AD05A0102F1824231
:1046100004F182431021D17130BC83F80811704736
:1046200011F0400F0BD052016FF3861102F182425C
:10463000C174802182F80411402182F80511C27CE6
:104640006FF3C302C2740A4A5B011119002003F11F
:10465000824381F8D20081F8E2006F21D97104F120
:104660008243284683F8081130BC9368184700BF7E
:10467000C41600200246807C9268202303FA01F1D0
:1046800000F00F035B0103F18243C9B283F8081104
:10469000014B01211B691847C41600200246807C8B
:1046A000FF280AD0D37C13F0400F06D06FF3861397
:1046B000D374024B92681B6918477047C4160020D8
:1046C00077B4837C44F62524FF2BADF8044021D039
:1046D000C47C64061ED503F00F0303F108046501D2
:1046E00005F1824599B180262E7102AD0D44640119
:1046F0005B0104F1824403F1824315F8041CE1716B
:1047000083F80811054B114603B070BC18474026CA
:104710006E71EAE703B070BC704700BF9D460000B1
:10472000F3B4867C40F6040306F00F06ADF80430BF
:1047300006F108035A0102F182427501127829B389
:10474000C2F302122A4C05EB0115254402AFAC7AE4
:104750000F44022AE4B217F8047C4FEA461218D13B
:1047600014F0010F15D0AC7A5B0102F1824203F123
:1047700082436FF30004AC7201F00101DF7182F833
:10478000087104221B4B02B0F0BC184702F007026C
:10479000D8E714F0020419D0AC7AC67C5B0103F1AF
:1047A00082436FF34104AC7202F18242DF7106F082
:1047B0000703012B82F80871C37C16D1720614D549
:1047C000DB098B4211D000221946DBE70A4801EBD6
:1047D00046015B0100EB011103F1824302F18242C9
:1047E00081F8D240DF7182F8087102B0F0BC7047E6
:1047F0008C170020C1460000C41600202DE9F041AE
:10480000094C0A4F04F1B405FF2603212046B8479E
:104810000021A674E1741434AC42F6D1602204483D
:10482000044BBDE8F0411847D81600209D46000013
:104830008C170020C57100002DE9F0470446807CEC
:10484000884600F00F0700295BD04D4B03EB471360
:104850005E69C6F30D06B4F810C094F813E040F298
:10486000FF339C451ABF0CF1FF3212B262460EF0C4
:104870000709B8F1000F05D07B0103F18243022143
:1048800083F80711A168636831449942A1604FEA37
:10489000471542D25B1A9EB22368DFF8F0A01EF0E3
:1048A000200F19442FD0664528BF66463246354B47
:1048B000E06898470AEB0503E268C3F8D8200AEBE2
:1048C0000502D2F8DC3066F30D03C2F8DC30D2F812
:1048D000DC306FF39B33C2F8DC30B8F1000F08D145
:1048E000B9F1010F05F1824514BF4A234E2385F823
:1048F00009317B0103F18243802283F80521BDE861
:10490000F0870E46A7E70AEB0503B6F5005F28BF60
:104910004FF40056C3F8D810D1E71EF0100F0ED098
:10492000E37C6FF30413E374174B2B445A686FF363
:104930000D025A605A686FF39B325A60CDE7B9F1A5
:10494000010F05F1824502EA06020CBF4B234A2300
:10495000944585F808310CD1E37C6FF38613E3743A
:104960000A4BDB6898470028C9D1E37C43F0400339
:10497000E37420460021064BBDE8F047184700BF0E
:104980008C1700207D7100009C170020C4160020A9
:104990009D4600002DE9F74F867C06F00F06044681
:1049A0000F467501002962D0614B2B445A685B6841
:1049B000C2F38D39C3F30D0AB4F81080E27C40F2E3
:1049C000FF3398451CBF08F1FF381FFA88F802F042
:1049D00007030AEA080B01932FB1730103F1824325
:1049E000012183F8071190060CD5626852B1A068C6
:1049F0002368E168121A92B25A45184428BF5A46F1
:104A00004C4B98476268002A34D1E37CD90640F1C8
:104A1000898062F304134848E168DBB2284443F01C
:104A20002003E37400F1C803C0F8C8105968208A55
:104A300060F39B315960596862F30D0159606FB999
:104A4000019B012B04BF3C4B5B1905F182450ABF5A
:104A500083F8E27025232D2385F80931760106F1CC
:104A60008246402386F8043103B0BDE8F08F8946C2
:104A70008A46A1E7F7B1238A5B451BD9E27CA3688C
:104A80006FF30412E2745344A360019B05F1824565
:104A9000012B0CBF2D23252385F808311EB9264B89
:104AA000E268C3F8C820254B0021204603B0BDE8CA
:104AB000F04F1847A16849448A42A160E5D9E07CDB
:104AC000B4F810C01C4B521A10F0200F92B214D040
:104AD00059196245E068C1F8C80028BF62462B44F6
:104AE000D3F8CC1062F39B31C3F8CC10D3F8CC20B0
:104AF0006FF30D02C3F8CC20A1E762450AD9B2F5E5
:104B0000005F0CD822EA0802206801445819C0F856
:104B1000C810E4E7F8D240F02000E074F4E74FF466
:104B20000052F1E7002FA6D1A3684B44ACE700BFC9
:104B30008C1700207D710000C41600209D460000E7
:104B40004FF082432DE9F0471E8C6C4CB6B2002E1C
:104B500067D1998B1A8B0A4012F0040005D0042209
:104B60009A832368BDE8F047184712F4007124D0F7
:104B700040F201229A839A8270221A83B4F8D030CC
:104B800003F00F03032B14D0B4F8F03003F00F033D
:104B9000032B10D1012104EB41100023B0F8D010F9
:104BA000A0F8D030C1F30A1163680320BDE8F047D4
:104BB00018470146EFE70146F6E712F0800004D0FF
:104BC00080229A8305206368F0E712F070050BD00D
:104BD00070229A839A8240F201221A83484B9847A6
:104BE000636801460220E1E712F008010ED00822B6
:104BF00083F800519A8370229A8240F201221A832C
:104C0000404B9847636829460120CFE7D00735D548
:104C100040F201229A839A8270221A8304206368E8
:104C2000C4E70025DFF8F090DFF8F080364F14205D
:104C3000684304EB000C9CF82620FF2A28D002F0E1
:104C40000F02012101FA02F3334221D05301520134
:104C500003F1824302F1824293F807E192F80931AD
:104C60001EEA030314D09CF8272002F0470C8C4561
:104C7000484412D1DA0603D5C04709E03546D1E7EA
:104C800013F0400102D06146204B15E09B06FBD497
:104C90000135092DCBD1BDE8F08712F0800F15D07A
:104CA00013F0400FF0D113F0080F01D0B847EFE731
:104CB00013F0020F02D0164B9847E9E702F0070203
:104CC000012AE5D15A0716D50021EFE713F0200C91
:104CD00001D00021D8E713F0040FF5D113F0010F34
:104CE00001D00C4BE8E702F00702012AD0D11A07E5
:104CF00001D50121DAE7DB06CAD5BDE7C4160020DD
:104D0000B5450000FD470000214700007546000042
:104D10003948000095490000D8160020F1450000F0
:104D2000B0F5007F0FD8B0F5807F0ED880280ED860
:104D300040280ED820280ED810280ED8082894BF56
:104D4000002001207047072070470620704705208B
:104D5000704704207047032070470220704700000E
:104D600008B54FF082439A78D0071AD49A78910701
:104D7000FCD11A7892070DD51A7802F0FD021A704C
:104D80004FF0824293789807FCD14FF0824293789B
:104D90009907FCD44FF0824301221A709A78920747
:104DA000FCD14FF082429378DB07FCD41E4A1F4BA4
:104DB000C3E90022C3E902221A611D4B98471D4B2B
:104DC0001A68C2F34413C2F3822112F01F0225D0E5
:104DD0001F2A08BF09221BB31F2B08BF192309B3C1
:104DE000072908BF062143EA821343EA01334FF043
:104DF00082429BB21385D37843F00303D370D378F8
:104E000043F00C03D37004231370907810F0030068
:104E1000FBD1094B53620123138108BD0922DAE754
:104E20001923DCE70621DEE7B1450000C4160020A7
:104E3000FD470000840080008C1700204FF0824363
:104E40009A78920722D19A789007FCD11A78D2B238
:104E5000910707D442F002021A704FF08242937811
:104E60009B07FCD10B4B4FF480329A604FF4003219
:104E70009A604FF480229A604FF400229A604FF0BB
:104E8000824340F28D221A83002070476FF0100099
:104E9000704700BF00E100E04FF08242138923F029
:104EA00001031B041B0C138170474FF0824340F039
:104EB00080009872704700002DE9F84300F00F045D
:104EC00046B20D468046F10F2046DFF8A090C84755
:104ED000022C074605F003053DD8837CFF2B3DD10E
:104EE0007DB9F143C90F2046C847837CFF2B35D1DC
:104EF0000C2363431C49CB58002B32D16FF01200B6
:104F00001BE0002E1BDA18490C2303FB041359681D
:104F100011B15B899A42F1DC13493A820C235C435C
:104F20000B1909595B6887F8128013EA260338BF0A
:104F30000B460135FB60FD740020BDE8F8830C23AF
:104F400063430949CB58002BE6D007490C2303FBE8
:104F500004131B89DEE76FF01100EEE76FF013001A
:104F6000EBE7002EF1DACEE75C7A0000D9450000CD
:104F70002DE9F04147B200F00F054FEAD77804461B
:104F800041462846174B9847022D064612D8837C87
:104F9000FF2B0FD0144B03229847F37C03F0070339
:104FA000012B09D1640104F18244002384F800310B
:104FB000FF237382BDE8F081002F09DA680100F158
:104FC000824090F8003103F08F0380F80031EFE762
:104FD000640104F1824494F8003103F0F80384F88A
:104FE0000031E5E7D9450000C14600002DE9F8434E
:104FF00000F00F044FFA80F84FEAD8712046524B68
:105000009847670107F18245064695F80001022C92
:10501000C0B200F29380B27CFF2A00F08F804B492F
:1050200001F1C8031F44F37C03F0070CBCF1010F2E
:1050300048D110F0770340F08480B6F81080DFF894
:105040001091112085F800014046C847DFF804C1DF
:10505000000700F0E0400CEA883CC8F30D084CEA79
:10506000000C48EA0000C7F804C002F00F027861A3
:105070004027802085F8057185F80401500101EB77
:1050800044140144F56884F8D23084F8E230C1F861
:10509000C85001F1C804D1F8CC1068F39B316160AD
:1050A000616800F1824263F30D0161601046B02136
:1050B00082F8041182F80571102280F8092118463F
:1050C000BDE8F883B8F1000F1CDA10F0700238D197
:1050D000C3F3020340EA0310338A85F800011C4E33
:1050E0001846B0470007C3F30D0300F0E04001EBA2
:1050F000441118438023786185F8043181F8E22057
:105100001046DDE710F007021BD1368AC3F3020315
:10511000184385F800010E4B304698470D4B0007A9
:1051200003EA863300F0E040034301EB44117B6067
:10513000402385F8053181F8D220E1E76FF01100B6
:10514000BEE76FF01300BBE7D9450000C41600208E
:10515000214D000000C0FF0F38B500F00F02C50957
:105160000C46104629462F4B9847022A57D8837C75
:105170001022012C03F00F0302FA05F214D1590199
:1051800001F18241D2B281F805215B01202203F1B5
:10519000824302FA05F5EDB283F80951C37C43F06E
:1051A0000803C374002038BD74BB5C0104F1824461
:1051B00094F806111142F5D0D2B284F804215B01B3
:1051C0002022AA4003F18243D1B283F8081194F857
:1051D0000731134207D0012303FA05F5EDB284F835
:1051E000071184F80451C27C02F00703012B08D197
:1051F00094F8063113F03003D4D163F3C302C274C0
:10520000D0E76FF3C302FAE75B0103F1824303F5D2
:1052100080739B79134214BF01200020C3E76FF015
:105220001100C0E7D945000030B500F00F00124B67
:1052300042019C189D5864680228C4F30D0414D8D8
:1052400099B102F1824292F80031112B10D192F8FB
:10525000073113F0100007D02B680B606B684B60B0
:10526000102382F80731204630BD6FF01100FBE7B4
:105270006FF01200F8E700BF8C1700202DE9F3470C
:10528000077A394B07F00F057FB24FEAD77980468E
:10529000494628469847028AD8F8041040F2FF335E
:1052A0009A421ABF02F1FF339BB21346022D044605
:1052B00003EA010628D8D8F80050B5F1005F0AD3F8
:1052C0002A4B4819984206D815F0030503D1002F40
:1052D00005DB914214D2E368002B40D00125E37C2A
:1052E0001B073FD4224B01A89847E37C214A13F0C7
:1052F000400A0ED001A89047012002B0BDE8F08717
:105300002EB1E368002BEAD16FF01100F5E73546C6
:10531000E5E743F04003E37401A89047D8F8003074
:105320002360D8F80430C4E9013AE37C69F3C71379
:1053300065F34513E37498F8093013B1B6FA86F3B0
:105340005B09E27C002F63F304122046E2744FF005
:105350000001B4BF084B094B98470020CDE76FF020
:105360001200CAE70220C8E7D9450000FF1F03204A
:1053700025620000336200003948000095490000B2
:10538000064B002908BF1946012802D1044B596079
:10539000704708B9024B1960704700BFB145000063
:1053A000C4160020084B002908BF194610B9074B46
:1053B00099607047012802D1044BD96070470228D8
:1053C00004BF024B19617047B1450000C4160020AC
:1053D000004B1847414B0000004B1847414B000061
:1053E000004B1847414B0000004B1847414B000051
:1053F000006800B970478842FAD101207047000068
:1054000070B50B4B056806460C46984780F00100C6
:10541000084B09494F22C0B2984733681BB9346022
:10542000236070BD1D462B68002BFBD12C60F7E775
:10543000F15300003D540000807A000000B900BE26
:10544000704700207047000008B51021024B034848
:105450009847002008BD00BFF144000098190020C3
:1054600013B5C307ADF804000AD50749074C00205F
:10547000A04707490120A04710210648064B98473E
:10548000002002B010BD00BF435400004945000099
:105490004954000098190020F144000010B5064B53
:1054A00006489847064B9847064B07489847074BCE
:1054B000BDE81040184700BF5D610000AC18002037
:1054C000AD440000C961000008000020FD6100003B
:1054D00008B5054CA0470028FCD0044B0449032024
:1054E0009847044B9847FEE789450000494500006E
:1054F00061540000D96D0000004B18479D54000016
:105500000B4A937882B0DBB20193019B990705D5D2
:10551000084B1B6813B1506802B01847019BDB07AA
:1055200004D5044B5B680BB1014AF4E702B0704745
:1055300000000241A819002010B5884201D30020C4
:1055400010BD0378012BFAD944789442F8D018445E
:10555000F3E7884201D3002070470378012BFAD982
:105560004278042AF7D0052AF6D01844F1E7000063
:1055700038B515460C4B02220C46984778B938BD11
:105580000378012B0DD94378022B0AD14379AB4222
:10559000F5D0C278837803EB022310FA83F0A0429F
:1055A000EED30020EBE700BF39550000F8B50A4FF5
:1055B0000D4616460024A84201D30020F8BD032260
:1055C0002946B8470028F9D00378012BF5D9B44211
:1055D000F4D018440134EEE7395500000A4970B59B
:1055E000002300F00F065D014C195AB26478844222
:1055F00008D06D5C0DB9B44204D00133042BF2D154
:105600004FF0FF32104670BDEC18002000207047AC
:1056100070B5094B04460D469847084B03EB401004
:105620008378032B05D1836929462046BDE8704065
:105630001847002070BD00BFDD550000EC180020A9
:105640002DE9F043374B384C85B080460F469146E4
:1056500098474601002F42D1A519A15DEF7000299E
:1056600034D10C23202212FB0032AB786878032B54
:105670002244EB6926D1012195F90C4098476B78BB
:1056800068B1002C40F20522B4BF184643F08000F8
:105690006A800121254B984705B0BDE8F083002CB6
:1056A000ACBF43F0800303F00F0304228DF80C30ED
:1056B0000123CDE901008DF80D30AA7001A81C4B23
:1056C0009847E9E798470223AB70E5E70123AB7001
:1056D00034444A46E369E17840469847DCE7012FC5
:1056E00004EB06030BD1A15D0222DA7021B99A7096
:1056F00040460E4B9847EBE705229A70E8E7022FE9
:1057000007D10422DA70A25D0AB99F70C4E70122B2
:10571000F3E7032F0CBF4FF4A06240F206625A80F9
:10572000D6E700BFDD550000EC18002059510000FD
:105730007D5200002DE9F047194B1A4E1A4C0546D0
:10574000984720270C2317FB0037374481463946FA
:105750002846164B9847C0B2082845F0800808D064
:1057600001212846A047404623460121BDE8F047D5
:10577000184706EB491600212846A0474FF00109BB
:1057800000214046A04786F80290736939462846B2
:10579000984710B90523B370E2E7BDE8F08700BF72
:1057A000DD550000EC18002059510000295200007E
:1057B00010B5104B984700281BDB802200210E4BB0
:1057C0000E4898470D4B0E4A03F18001FF20587098
:1057D000DA61C3E9052220338B42F8D1094C0A492A
:1057E0000020A04709490120A04702200849A047FE
:1057F000002010BD614D0000C5710000EC180020B4
:105800000D560000A553000035570000115600004A
:1058100041560000004B184781530000004B1847C9
:105820003D4E0000004B1847994E0000004B1847B2
:10583000AB4E0000F8B5104C06460D461746A04783
:10584000002813DAFF20A047041E12DB3A4629463F
:1058500030460A4B9847002807DB094B60011A18AD
:1058600005F003051D5456700020F8BD6FF01300BD
:10587000FBE76FF01400F8E7DD550000B94E0000BB
:10588000EC18002000210246014B0846184700BFD3
:105890003558000038B5074B05469847041E07DB0E
:1058A0002846054B9847054800EB4410FF234370FA
:1058B00038BD00BFDD550000714F0000EC1800201E
:1058C00038B50C4B05469847002810DB40010A4CC0
:1058D000235C0444002B0CBF02230123A370284641
:1058E000064B9847002801DA0023A37038BD6FF0FB
:1058F0001100FBE7DD550000EC180020ED4F000023
:105900002DE9F04F90F808A0364B074687B0504677
:105910009847B0F1000897F809907E685DDBDFF8E2
:10592000D4B0314B4FEA48180BEB080502A8984752
:10593000AB788DF807309DF807002C4BC4B2012CD2
:105940001CD10322AA7002A898471BF808304BB359
:1059500019F100034FEADA1418BF012339683A7AC3
:10596000CDE90316002C35D042F080028DF81530B9
:1059700003A81F4B8DF8142098470DE002A8984704
:105980009DF80730DBB2052B2AD0062B07D0002B61
:105990000CBF6FF01200012007B0BDE8F08F6FF070
:1059A0000F00F9E7E97CAA7C02EB012292B22AB946
:1059B0000423AB70164623461C46CFE795F90C101E
:1059C000964228BF16460029F6DAB24294BF002359
:1059D0000123C3E702F00F02C8E76FF01100DBE715
:1059E0000220D9E7DD550000256200003362000087
:1059F0007D520000EC1800202DE9F04105460C46D0
:105A0000D9B9134B9847071E1EDB02212846114EB9
:105A1000B04780B121462846B04700280BDB0E482E
:105A200000EB471040F2013343802246C369032153
:105A3000284698472046BDE8F0810129054B18BF4C
:105A40000221BDE8F04118476FF01100F3E700BFF5
:105A5000DD55000059510000EC18002038B50F4BFF
:105A600014460D4698470E4B002C08BF1C460028D4
:105A700004DB012D08D002D3022D0AD038BD094B1A
:105A800003EB40104461F9E7064B03EB40108461DF
:105A9000F4E7044B03EB4010C461EFE7DD55000071
:105AA0000D560000EC180020C00100F1824000F506
:105AB00000408BB28160090C43F0804341F04041CB
:105AC000836281627047000010B54FF08071002042
:105AD0001C4CA0471C4A4FF08073536192F8583019
:105AE00003F0FB0382F8583092F8583003F0FE03BD
:105AF00043F0010382F8583092F83C3003F0F00391
:105B000043F0070382F83C304FF000710020A047BB
:105B10004FF00073536192F8593003F0FB0382F8A1
:105B2000593092F8593003F0FE0343F0010382F834
:105B3000593092F83C3003F00F0343F0700382F8C1
:105B40003C3010BDA95A000000800041074B4022A4
:105B5000C3F8A820A3F5A0531A6942F480621A6121
:105B60009A6942F001029A61704700BF001C004030
:105B700010B5044B9847044B9847044BBDE81040C0
:105B8000184700BF4D5B0000B1570000C95A000024
:105B9000134A4FF0006110B500205161114CA0472D
:105BA00092F85B30042103F0FE0382F85B300120A1
:105BB000C2F89410A04792F8C230082103F0FE0307
:105BC00082F8C2300120C2F89410A04792F8C33086
:105BD00003F0FE0382F8C330BDE81040024B1847C3
:105BE00000800041A95A0000715B0000FEE7000040
:105BF00008B5144A144B9A4203D01449043A8B4214
:105C000018D3134B134A0021934218D3124A134B53
:105C100022F07F029A60D3F8882042F47002C3F821
:105C20008820BFF34F8FBFF36F8F0D4B98470D4BFD
:105C30009847FEE752F8040F43F8040BDFE743F8F8
:105C4000041BE1E7DC8D000000000020801600202E
:105C500080160020D84200200040000000ED00E047
:105C600035710000296E000010B5034B9847034BB7
:105C7000BDE81040184700BF915B0000F9540000D8
:105C8000054B10B51C6904B910BD6368204600229D
:105C9000012198472468F6E76C190020064B70B57F
:105CA000DC6805460E4604B970BD636813B1314621
:105CB000284698472468F6E76C190020F8B50C4B85
:105CC0009C6805460E4617460CB92046F8BD636829
:105CD0000BB92468F8E73A4631462846984720B180
:105CE0000A30F6D04FF0FF30F0E70120EEE700BFBA
:105CF0006C190020044B10B55C6804B910BD6368D2
:105D000003B198472468F8E76C19002010B51446D1
:105D10000A4619B1012920D0002010BD2378002B9C
:105D2000FAD16378052B0DD0092BF5D162880D4B84
:105D3000002ADA7614BF04210321997601200A4B48
:105D40009847E9E76088094BC0B298476388002B01
:105D500014BF03210221034BEFE72146044B00202F
:105D60009847D9E76C1900209D5C00002D58000071
:105D7000BD5C000070B50D4D0D4B00240226984708
:105D80006E8320460B4B6C7798470B4B287F0B4D4F
:105D90009847214620460A4AA84720463146094AE4
:105DA000A8472046084BBDE8704018476C190020F2
:105DB000815C000095580000855800005D5A000085
:105DC000055E00000D5D0000C158000010B1012803
:105DD00002D07047014B1847014B18479D5C0000EB
:105DE000755D00001FB58DF80C008DF80D3001A811
:105DF000034BCDE90112984705B05DF804FB00BFE5
:105E0000015900002DE9F743AF4B002205460C462F
:105E10009847431C09D0012800F0CD80217811F06B
:105E2000E00304D0802B00F0C9800020C3E0637839
:105E3000013B0A2BF9D801A252F823F0F15E0000D1
:105E40002B5E00000F5F00002B5E0000735E000001
:105E50002B5E00002B5E00002B5E0000695E0000E0
:105E60002B5E00001F5F00006288D2B25AB9974BC8
:105E700098470022012311462846954CA047B0FAC6
:105E800080F0400997E0934C2368D3E90001924BDE
:105E900098470028C9D0C2788378904F03EB02233B
:105EA00010FA83F104220191B8470DF10808FF238D
:105EB00048F8080D009A002ADBD092F80290994524
:105EC00014D026694EB90098019903780422184429
:105ED0000090B8474B460090ECE7736842460021BB
:105EE000304698470028EED03668EBE79946EAE757
:105EF00002299AD1E688002E97D1A0883146784BA6
:105F0000C0B29847012332463146284650E0022964
:105F10008BD1E688002E88D1A0880121EFE76D4D56
:105F200066882B68EA7EA788D3E900016A4B984708
:105F300000283FF47AAF0090C2788178674C01EB7B
:105F4000022110FA81F101910422A04700283FF4B8
:105F50006CAF8378BB4213D1C378B34210D10DF13B
:105F600008082C6948F8080D002C3FF45EAF0121A9
:105F70006368424620469847014640B12468F3E7EB
:105F8000009801990378184400900422DDE76368C3
:105F900042462046984700287FF447AF26B10123A8
:105FA000BB406F7F1F436F7700231A461946184680
:105FB000474CA047012003B0BDE8F08363780A2B6B
:105FC0003FF633AF01A252F823F000BF9B60000000
:105FD0002B5E00002B5E00002B5E00002B5E00009D
:105FE0002B5E0000F95F00002B5E00008B6000005C
:105FF0002B5E0000ED60000063881A0A022A16D0AA
:10600000032A31D0012A7FF410AF324BE4881B6899
:10601000D3E90001314B9847014600283FF405AF12
:10602000122C22464FF0000328BF122224E7294AEF
:10603000E4881068167F5A1CD0E90001D2B2264BC2
:106040009847014600283FF4F0AEC378827802EB0F
:10605000032292B2944216D9013E26420CBF01237C
:1060600000231446224607E71A4AE4881068167F80
:10607000D0E90001DAB21B4B9847014600283FF4F3
:10608000D4AE0278E6E70023ECE712494B69CA7EFA
:106090001A7000230122496937E701F01F01012925
:1060A00022D902297FF4C1AEA0880D4BC0B2984717
:1060B0000028FFF6BAAE00F0010006494B69022243
:1060C00018800023E7E700BFBD5C0000815C000092
:1060D000E55D00006C190020715500003955000085
:1060E000F9590000AD5500000020E6E70F49A288ED
:1060F0004B7F134113F001030E460CD00D69002DA8
:106100003FF493AE6B682246022128469847002848
:1061100006DA2D68F3E74A6913704969012246E7F8
:106120007369187001220023716940E76C1900201F
:10613000012806D002D3022805D070470348044B3B
:1061400018470448FBE70448F9E700BF701900202E
:1061500001540000741900207819002038B5044655
:10616000003018BF012040F255320B490B4B9847C5
:106170000B4B984700280EDB0A4B0B4D202218468C
:106180000021A847094944610020094CA04701208B
:106190000849A047002038BD9E7A00003D54000009
:1061A000B15700006C190020C5710000F55C0000BB
:1061B00015580000CD5D00000146014B014818470D
:1061C000015400007C19002010B50A4B9C7E54B984
:1061D00060B102681860D2791A7701229A76064B6C
:1061E0009847204610BD6FF00300FBE76FF00800F2
:1061F000F8E700BF6C1900201D580000004B18473D
:1062000025580000014B5869704700BF6C190020E9
:10621000034B987E10F0100F18BF1020704700BF7E
:106220006C190020EFF31083036072B6BFF35F8F29
:106230007047BFF35F8F036883F3108870470000D7
:10624000034A1368191F1160026843F8042C704751
:10625000D0420020004B184741620000034A1368F7
:10626000191F116043F8040C704700BFD042002092
:1062700030B50549054B0A681C68151F0D6042F8CA
:10628000044C186030BD00BF88210020B8190020E0
:1062900002680549054B03EB82030A68101F08607A
:1062A00042F8043C704700BFD042002090210020FB
:1062B000034A13680430191F116043F8040C704737
:1062C000D0420020064950F8043B0A6810B4141F5D
:1062D0000C6042F8040C5DF8044B1A68181D104756
:1062E000D0420020034A1368191D11601A68024B3E
:1062F0001A60704788210020B8190020034A1368EB
:1063000053F8040B1360036804301847D042002090
:10631000054B064A1968081F1860136853F8040BE8
:1063200041F8040C13607047D0420020B8190020D7
:10633000034A1368191F11601A6843F8042C704748
:10634000D042002004490B681A681AB1181F08606F
:1063500043F8042C704700BFD0420020024A136863
:1063600004331360704700BFD0420020034B1B680A
:10637000D3E90012C3E90021704700BFD0420020DA
:10638000034A1368191F11605A6843F8042C7047B8
:10639000D0420020044B1B68D3E9011299601968B0
:1063A000C3E90021704700BFD0420020034A1368B0
:1063B000196843F8041F1360704700BFD0420020E3
:1063C000054A1368191F1160D3E9002143F8042C12
:1063D000C3E90012704700BFD0420020054B1A6885
:1063E000111D1960044912680B68181F086043F8F2
:1063F000042C7047D042002088210020054B1A68E9
:10640000111D1960044912680B68181F086043F8D1
:10641000042C704788210020D0420020044A054BFC
:1064200019681368181F10600A6843F8042C704735
:10643000D042002088210020034A1368191F1160F0
:1064400043F8043C704700BFD0420020024B1A685A
:1064500012681A60704700BFD0420020044B054A02
:1064600019681368181F106043F8041C704700BFB8
:1064700088210020D0420020034A1368191D1160B2
:106480001A68024B1A607047D04200208821002011
:10649000024B1B681A6812681A607047D0420020CD
:1064A00004490A68134653F8080B0B6053680360ED
:1064B000704700BFD0420020024B1B681A68127858
:1064C0001A607047D042002004490A68134653F806
:1064D000080B0B6053680370704700BFD042002068
:1064E00004490B68D3E90002024443F8042F0B600F
:1064F000704700BFD0420020054801680B4649683C
:1065000053F8082B036013680B441360704700BFF7
:10651000D0420020094B19680A1DF0B588681A603E
:106520000A680025121845F1000300244D68161969
:1065300043EB0507C1E90176F0BD00BFD042002062
:1065400004490B68D3E90002121A43F8042F0B60C8
:10655000704700BFD04200200548036810B51946B7
:106560005C6851F8042B016062435A6010BD00BFA3
:10657000D0420020054810B5036819465A6851F802
:10658000044B016092FBF4F25A6010BDD04200202F
:1065900004490B68D3E90002024043F8042F0B6062
:1065A000704700BFD042002004490B68D3E90002C5
:1065B000024343F8042F0B60704700BFD042002015
:1065C00004490B68D3E90002424043F8042F0B60F2
:1065D000704700BFD0420020024B1A681368DB43AB
:1065E00013607047D0420020024B1A6813685B4268
:1065F00013607047D0420020024B1A6813680133C1
:1066000013607047D0420020024B1A681368013BA8
:1066100013607047D0420020034B1A6813885BBA9E
:106620009BB21360704700BFD0420020024B1A6833
:1066300013685B0013607047D0420020024B1A6859
:1066400013685B1013607047D0420020044A13683F
:10665000191D1160D3E900128A405A60704700BFCB
:10666000D0420020044A1368191D1160D3E90012BA
:10667000CA405A60704700BFD0420020044B1A68DD
:106680001368B3FA83F35B095B421360704700BF82
:10669000D0420020024B1A681368DB171360704762
:1066A000D042002006490B68D3E9000282424FF035
:1066B000FF3218BF002243F8042F0B60704700BF61
:1066C000D042002005490B68D3E90002121A18BF16
:1066D0004FF0FF3243F8042F0B607047D042002088
:1066E00006490B68D3E9000282424FF0FF32A8BF8F
:1066F000002243F8042F0B60704700BFD0420020F7
:1067000006490B68D3E9000282424FF0FF32D8BF3E
:10671000002243F8042F0B60704700BFD0420020D6
:1067200006490B68D3E9000282424FF0FF3228BFCE
:10673000002243F8042F0B60704700BFD0420020B6
:1067400006490B68D3E9000282424FF0FF3298BF3E
:10675000002243F8042F0B60704700BFD042002096
:10676000024A136819680B4413607047B819002077
:10677000084909480B68026810B55C6842F8044C87
:10678000A2F10804046053F8080B42F8080C0B60EF
:1067900010BD00BFD042002088210020004B1847C8
:1067A0001D640000044A054B19681368181F106027
:1067B0008A6843F8042C7047D042002088210020CA
:1067C000024A136808331360704700BF8821002015
:1067D000044B1B68D3E90002A0FB0201C3E90010CF
:1067E000704700BFD0420020F8B5084B1C68D4E9C0
:1067F0000175221D00261A6046EA05002268044D34
:1068000033463946A847C4E90102F8BDD04200200A
:10681000356E000007490B6810B518785A6803F107
:106820000C049B680C601A449A4200D110BD187089
:106830000133F9E7D042002008480368D3E900217A
:1068400010B503F10C049B6804601A44C91A9A42FB
:1068500000D110BD187858540133F8E7D042002019
:1068600007490A6810B5D2E9003002F10C049268B9
:106870000C6013F1FF3300D210BDD15CC154F8E7B6
:10688000D04200200A490A6802F10C03F0B51678DC
:106890000B60D2E90130151D1844C41A13B12778D2
:1068A000B74203D094600D605360F0BD013BF4E744
:1068B000D04200200A490A6802F10C03F0B51678AC
:1068C0000B60D2E90130151D1844C41A13B12778A2
:1068D000B74203D194600D605360F0BD013BF4E713
:1068E000D042002012480268F0B51446536854F8AC
:1068F000086B956802F10C010160ED1A00211E443D
:10690000B34205EB030700D011B104609160F0BD04
:1069100093F800C039788C4506D007D834BF4FF0C3
:10692000FF3100210133EBE70021FBE70121F9E70B
:10693000D0420020044A1368191F11604FF0FF3243
:1069400043F8042C704700BFD0420020014B0022C6
:106950001A7070478C210020024A136819680B4492
:1069600013607047B8190020064A1368191D1B6888
:1069700011600BB9044B1847044A136804331360C1
:10698000704700BFD042002059690000B8190020AC
:106990000F4870B40F4D02682B68D2E900141E1D19
:1069A0001B682E600B441360091B1B1BDB43C94390
:1069B000DB0FC90F8B4207D008320260064A13680A
:1069C0000433136070BC7047044B70BC184700BFA1
:1069D00088210020D0420020B81900205969000009
:1069E00008490B681A685868013282421A6006D159
:1069F000054A08330B601368043313607047034B78
:106A0000184700BF88210020B819002059690000EC
:106A100038B5064C064D207818B1002323706370FA
:106A200038BD10212046A847F5E700BF981900207F
:106A3000F1440000044B10B51C68221F1A60034B80
:106A4000984744F8040C10BDD0420020116A0000A1
:106A500001490248024B184710420020E420002060
:106A60001572000070B50A4B14460D46064698474D
:106A7000002CB8BF441B63198342C8BF441B021BD0
:106A80006119013231447019024B9847204670BD9C
:106A9000257200009371000082B040F20F53019301
:106AA000019B002B01DC02B07047019B013BF6E724
:106AB00010B5064C064B20469847064B014620462B
:106AC0009847054BBDE81040184700BF50420020D2
:106AD000257200001D450000996A00002DE9F14F64
:106AE000204CDFF890A0DFF8848000230746237055
:106AF0006370D04701250526B0FBF6F6B54217DDD9
:106B00003846D0470523B0FBF3F303EB83039842E9
:106B100025D93946144B1348984706EB86020021C5
:106B2000124B10489847124B01B0BDE8F04F184780
:106B300005EB850939460C4B204698474FF0FF324C
:106B400049462046C047012DA9F1050B03D05A46FE
:106B500000212046C047064B98470135CEE701B0DB
:106B6000BDE8F08F5042002015720000656A0000F9
:106B7000B16A00002572000010B5034B9847034826
:106B8000034BBDE810401847516A0000E420002084
:106B9000DD6A000070B50B4D0B4C0C4A00232B60D6
:106BA0000B4B23701368191D116020461A680949A0
:106BB000094B98472046094B9847094B2860BDE888
:106BC000704018478C19002010420020D04200204D
:106BD000B47A0000F28C0000D5710000257200002C
:106BE000796B000070B50B4D0B4C0C4A00232B60E9
:106BF0000B4B23701368191D116020461A68094950
:106C0000094B98472046094B9847094B2860BDE837
:106C1000704018478C19002010420020D0420020FC
:106C2000B47A0000F78C0000D571000025720000D6
:106C3000796B00002DE9F74F194C1A4E1A4D1B4A7B
:106C40001B49DFF878A01B4FDFF87480DFF85C90F9
:106C5000DFF870B00023F6B220462B602670D047D4
:106C60002046B8472860C047134BCDF800A0A24685
:106C7000DBF800204A4502D903B0BDE8F08F0022BE
:106C800019462A60019359F80429009B2670504642
:106C900098475046B8472860C047019BE8E700BFC7
:106CA00010420020B47A00008C190020342000200B
:106CB000FC8C000025720000F78C0000D5710000EC
:106CC000796B0000D04200202DE9F74F1B491C4F83
:106CD0000A681C4E1346002453F8080B0B605368D7
:106CE0000090FFB2009A944203EB040802D103B073
:106CF000BDE8F08F144D1549DFF858B0019314F03A
:106D00000F0208BF326028464246DFF84CA02F70C1
:106D1000D8472846D047DFF844903060C847002263
:106D200032602F7098F8002009492846D847284635
:106D3000D04701343060C847019BD3E7D0420020E0
:106D4000B47A00008C19002010420020FC8C000056
:106D5000028D0000D571000025720000796B0000E3
:106D6000024B002218705A70014B18471042002045
:106D7000796B0000034A1368191D1878024B1160E3
:106D8000184700BFD0420020616D000038B50B4BA2
:106D90000B4A1A600B4B0C4A0C4C0D4D1A600D4BF4
:106DA000236001222A702B7803B938BD236853F879
:106DB000040B2360036804309847F4E7D0420020B6
:106DC0003820002088210020B81E0020B81900209B
:106DD0008C2100206C00002007B5084B0193019B1B
:106DE000002B08DC0649074B0748084C9847084B1E
:106DF0009847A047FDE7019B013BEFE7828F8A00A0
:106E00000C8D000015720000104200208D6D0000F6
:106E1000796B000008B5024B9847024B9847FEE794
:106E2000695C0000D154000008B5014B984700BFD1
:106E3000156E000053B94AB9002908BF00281CBFCD
:106E40004FF0FF314FF0FF3000F072B9ADF1080C98
:106E50006DE904CE00F006F8DDF804E0DDE9022378
:106E600004B070472DE9F047089E04468846002B81
:106E70004BD18A42154667D9B2FA82F24AB1C2F1C1
:106E8000200701FA02F320FA07F7954047EA0308C2
:106E900094404FEA154E230CB8FBFEF71FFA85FC11
:106EA0000EFB178843EA084307FB0CF1994209D906
:106EB000EB1807F1FF3080F01B81994240F21881F6
:106EC000023F2B445B1AA4B2B3FBFEF00EFB10335F
:106ED00044EA034400FB0CFCA44509D92C1900F139
:106EE000FF3380F00781A44540F2048102382C442E
:106EF00040EA0740A4EB0C0400271EB1D440002355
:106F0000C6E900433946BDE8F0878B4209D9002E17
:106F100000F0EB800027C6E9000138463946BDE89D
:106F2000F087B3FA83F7002F47D18B4202D3824216
:106F300000F2FA80841A61EB030301209846002EC8
:106F4000E0D0C6E90048DDE702B9FFDEB2FA82F21E
:106F5000002A40F08F80491B4FEA154E1FFA85F832
:106F60000127B1FBFEFC230C0EFB1C1143EA01437D
:106F700008FB0CF1994207D9EB180CF1FF3002D253
:106F8000994200F2CD808446591AA3B2B1FBFEF0BB
:106F90000EFB101443EA044408FB00F8A04507D98F
:106FA0002C1900F1FF3302D2A04500F2B68018463A
:106FB000A4EB080440EA0C409FE7C7F1200CBB405B
:106FC00022FA0CFE4EEA030E01FA07F420FA0CF541
:106FD00021FA0CF34FEA1E482543B3FBF8F92C0CB9
:106FE00008FB19331FFA8EFA44EA034309FB0AF43B
:106FF0009C4202FA07F200FA07F10BD91EEB0303D9
:1070000009F1FF3080F087809C4240F28480A9F132
:10701000020973441B1BADB2B3FBF8F008FB10333D
:1070200045EA034400FB0AFAA24508D91EEB040412
:1070300000F1FF336BD2A24569D90238744440EAAB
:107040000940A0FB0289A4EB0A044C45C2464B460A
:1070500054D351D0002E69D0B1EB0A0564EB030480
:1070600004FA0CFCFD40FC404CEA0505C6E900545E
:10707000002747E7C2F1200320FA03F7954001FA01
:1070800002F021FA03F34FEA154E3843010CB3FB2B
:10709000FEF71FFA85F80EFB173341EA034107FBA1
:1070A00008F38B4204FA02F407D9691807F1FF3C90
:1070B0002FD28B422DD9023F2944CB1A81B2B3FB88
:1070C000FEF00EFB103341EA034100FB08F38B4254
:1070D00007D9691800F1FF3C17D28B4215D9023845
:1070E0002944C91A40EA07473BE73746304609E7D3
:1070F0000746E7E61846FBE64145ABD2B8EB020A85
:1071000069EB0E0201381346A4E76046E9E718462A
:1071100095E76746D1E781467CE702382C4447E78C
:10712000ACF1020C2B442FE7384608E73746E9E676
:10713000704700BF70B50D4E0D4CA41BA410002568
:10714000A54209D10B4E0C4C01F034FEA41BA41037
:107150000025A54205D170BD56F825309847013568
:10716000EEE756F8253098470135F2E7C08D00006C
:10717000C08D0000C08D0000C48D000010B5431EFE
:107180000A44914200D110BD11F8014B03F8014FA0
:10719000F7E7884210B501EB020307D8421E994277
:1071A0000AD011F8014B02F8014FF8E78342F5D9F4
:1071B0008118D21AD34200D110BD13F8014D01F845
:1071C000014DF7E702440346934200D1704703F8AC
:1071D000011BF9E70EB400B59CB01DAB0290069000
:1071E0006FF00041094807910491094953F8042BB5
:1071F00005910068019302A900F0D0F8029B0022DB
:107200001A701CB05DF804EB03B070471C16002028
:107210000802FFFF034611F8012B03F8012B002A97
:10722000F9D17047034613F8012B002AFBD1181A35
:107230000138704770B5CD1C25F0030508350C2DBD
:1072400038BF0C25002D064601DBA94203D90C23CB
:107250003360002070BD00F083FB214A1468214692
:1072600091B9204C23681BB9304600F017FB206011
:107270002946304600F012FB431C24D10C23336016
:10728000304600F06EFBE4E70B685B1B18D40B2B59
:107290000FD90B60CD50CC18304600F062FB04F1E2
:1072A0000B00231D20F00700C31AD3D05A42E2502E
:1072B000D0E78C424B6816BF636013600C46EBE767
:1072C0000C464968CCE7C41C24F00304A04205D056
:1072D000211A304600F0E2FA0130CFD02560DBE71A
:1072E00090190020941900202DE9F0478E689E42E5
:1072F00082460C469046994637D88A8912F4906F98
:1073000031D0256809696F1A6569022305EB4505C7
:1073100095FBF3F509F101033B449D4238BF1D463F
:10732000530530D52946FFF785FF064650B90C2393
:10733000CAF80030A38943F04003A3814FF0FF3027
:10734000BDE8F0873A462169FFF718FFA38923F4C7
:10735000906343F08003A381266165613E44ED1B89
:107360002660A5604E464E4500D94E4632464146FF
:107370002068FFF70EFFA3689B1BA36023681E44D1
:1073800026600020DCE72A4600F03AFB064600288B
:10739000E2D12169504600F0E5FAC8E72DE9F04F47
:1073A0001D468B891F069DB080460C4616460FD59C
:1073B0000B696BB94021FFF73DFF2060206128B9C0
:1073C0000C23C8F800304FF0FF30C8E04023636161
:1073D0000023099320238DF8293030238DF82A309B
:1073E00003954FF0010B37463D4615F8013B0BB1B5
:1073F000252B3ED1B7EB060A0BD053463246214629
:107400004046FFF771FF013000F0A480099B534410
:1074100009933B78002B00F09D8000234FF0FF3252
:10742000CDE90523049307938DF853301A932F4623
:10743000052217F8011B504800F042FA049BD0B90E
:10744000D90644BF20228DF853201A0744BF2B22AF
:107450008DF853202A782A2A15D0079A2F46002023
:107460000A25394611F8013B303B092B4DD9B8B1FB
:107470000FE02F46B8E7404A801A0BFA00F0184395
:1074800004903D46D3E7039A111D12680391002A28
:1074900001DB079204E0524243F002030792049397
:1074A0003B782E2B0CD17B782A2B33D1039B1A1DD2
:1074B0001B680392002BB8BF4FF0FF3302370593D0
:1074C0002E4D39780322284600F0FAF938B14023CE
:1074D000401B03FA00F0049B0343013704933978FF
:1074E00027488DF8281006227E1C00F0E9F90028B4
:1074F00038D0244B13BB039B073323F00703083317
:107500000393099B4B4409936DE705FB023201206D
:107510000F46A6E700230137059319460A2538468A
:1075200010F8012B303A092A03D9002BC8D0059155
:10753000C6E705FB012101230746F0E703AB0093F3
:107540002246114B04A94046AFF30080B0F1FF3F43
:107550008146D6D1A3895B063FF535AF09981DB0AA
:10756000BDE8F08F03AB00932246074B04A94046C9
:1075700000F082F8EAE700BF808D0000868D0000F1
:107580008A8D000000000000E97200002DE9F0473C
:1075900091461F468A680B69DDF820809342B8BF88
:1075A0001346C9F8003091F8432006460C4612B144
:1075B0000133C9F800302368990642BFD9F800307A
:1075C0000233C9F80030256815F0060507D104F12B
:1075D000190AE368D9F800209B1AAB4228DC94F81A
:1075E00043302268003318BF012392062DD404F1E2
:1075F000430239463046C047013020D02368E56851
:10760000D9F8002003F00603042B08BFAD1AA368C5
:1076100022690CBF25EAE57500259342C4BF9B1A79
:10762000ED184FF000091A344D451AD1002008E03A
:107630000123524639463046C047013003D14FF04E
:10764000FF30BDE8F0870135C3E7E1185A1C302050
:1076500081F84300224494F8451082F84310023325
:10766000C5E70123224639463046C0470130E6D0FF
:1076700009F10109D8E700002DE9F04301F1430CBD
:107680000C46097E85B06E291746064698460C9A28
:1076900000F0B38022D8632936D00AD8002900F040
:1076A000B980582900F0838004F1420584F8421023
:1076B00032E0642901D06929F6D1206813680506F3
:1076C00003F104012AD51B681160002B03DA2D2277
:1076D0005B4284F843206F480A2239E0732900F0A6
:1076E0009D8008D86F2920D07029DDD1236843F010
:1076F0002003236003E0752917D07829D4D178239B
:1077000084F84530644855E01368191D1B68116002
:1077100004F1420584F8423001238CE01B681160BB
:1077200010F0400F18BF1BB2CFE713682568181D73
:107730001060280601D51B6802E06806FBD51B888F
:1077400054486F2914BF0A220822002184F84310EC
:107750006568A560002DC0F29580216821F00401C4
:107760002160002B3DD1002D40F08E806546082A17
:107770000BD12368DB0708D5236962689A42DEBF14
:10778000302305F8013C05F1FF35ACEB050323611F
:10779000CDF800803B4603AA21463046FFF7F6FEAF
:1077A00001304DD14FF0FF3005B0BDE8F0833948CE
:1077B00084F84510136821681D1D1B6815600A06B2
:1077C0000BD5CA0744BF41F0200121601BB92268D4
:1077D00022F0200222601022B7E74D0648BF9BB27C
:1077E000EFE76546B3FBF2F102FB1133C35C05F82A
:1077F000013D0B460029F5D1B9E713682568616999
:10780000181D106028061B6801D5196002E06A0681
:10781000FBD51980002323616546B9E71368191D5C
:1078200011601D6862680021284600F049F808B11F
:10783000401B606063682361002384F84330A7E73E
:1078400023692A4639463046C0470130AAD023680A
:107850009B0713D4E068039B9842B8BF1846A3E780
:1078600001234A4639463046C04701309AD0013597
:10787000E368039A9B1AAB42F2DCEBE7002504F1C4
:107880001909F5E7002BACD1037884F8423004F1F4
:1078900042056CE7918D0000A28D000038B5064CC2
:1078A0000023054608462360FCF774FE431C02D102
:1078B000236803B12B6038BDD442002000000000D3
:1078C00001F0FF01102A2BDB10F0070F08D010F891
:1078D000013B013A8B422DD010F0070F42B3F6D195
:1078E000F0B441EA012141EA014122F007047FF0AE
:1078F00000070023F0E80256083C85EA010586EA05
:10790000010685FA47F5A3FA87F586FA47F6A5FA40
:1079100087F68EB9EED1F0BC01F0FF0102F007024C
:1079200032B110F8013B013A83EA010313B1F8D1F7
:107930000020704701387047002D06BF35460338D8
:10794000073815F0010F07D1013015F4807F02BF11
:10795000013015F4C03F0130F0BC0138704700BF62
:107960007047704738B50546002945D051F8043CAA
:107970000C1F002BB8BFE418FFF7F2FF1F4A136873
:10798000104633B9636014602846BDE83840FFF7FD
:10799000E8BFA3420CD921686218934204BF1A6859
:1079A0005B68636004BF521822600460ECE7134612
:1079B0005A680AB1A242FAD919685818A0420BD1E4
:1079C00020680144581882421960DDD1106852685D
:1079D0005A6001441960D7E702D90C232B60D3E722
:1079E000206821188A4204BF11685268626004BF8F
:1079F000091821605C60C7E738BD00BF90190020FE
:107A0000F8B5074614460E4621B91146BDE8F840C0
:107A1000FFF710BC22B9FFF7A5FF25462846F8BDA1
:107A200000F014F8A0420FD221463846FFF702FCBE
:107A300005460028F2D031462246FFF79FFB31462B
:107A40003846FFF78FFFE9E73546E7E751F8043C92
:107A5000181F002BBCBF0B58C01870476C180020B3
:107A600000000000400000002C1800200000000072
:107A700040000000EC170020000000004000000063
:107A80002E2E2F68616C2F7574696C732F7372635F
:107A90002F7574696C735F6C6973742E63002E2E7E
:107AA0002F7573622F6465766963652F75736264E1
:107AB000632E630000000000D57A000068000020FB
:107AC0000004434F4C44000000000000E97A00002D
:107AD000940000200005574F52445300000000005E
:107AE000FD7A0000F8140020000444554D500000B9
:107AF000000000000D7B0000FC14002000022E534B
:107B000000000000217B00000015002000052E4829
:107B10004848480000000000357B000004150020A4
:107B200000032E484800000000000000497B0000D0
:107B3000DC00002000064D41524B45520000000081
:107B4000657B000048010020000C454E5649524F0D
:107B50004E4D454E543F000000000000797B000070
:107B60005801002000054445505448000000000022
:107B70008D7B00007801002000044D4F5645000029
:107B800000000000A17B0000BC0100200006574956
:107B90005448494E00000000B57B0000DC01002085
:107BA00001054C454156450000000000C97B00001E
:107BB0000802002001052B4C4F4F50000000000030
:107BC000DD7B00001C02002001044C4F4F500000E0
:107BD00000000000F57B0000300200200007454E49
:107BE000444C4F4F5000000000000000057C000096
:107BF0005C0200200102444F00000000157C0000E0
:107C00007C02002000024C3E00000000257C0000A9
:107C1000A002002000023E4C00000000397C000061
:107C2000C0020020010652455045415400000000AA
:107C30004D7C0000D002002001055748494C45000A
:107C400000000000617C0000E002002001054147C7
:107C500041494E0000000000757C0000F802002041
:107C60000105554E54494C0000000000897C00007D
:107C7000100300200105424547494E000000000066
:107C80009D7C00001C0300200104454C534500006E
:107C900000000000B17C00004003002001045448B3
:107CA000454E000000000000C17C0000540300208D
:107CB0000102494600000000D97C0000700300204A
:107CC0000007434F4D50494C4500000000000000A4
:107CD000F17C0000900300200108504F5354504F96
:107CE0004E45000000000000057D0000F00300206C
:107CF00001035B275D00000000000000157D00000F
:107D00000C04002001013B0000000000257D000064
:107D10002004002000013A00000000003D7D00002A
:107D2000380400200009494D4D454449415445005F
:107D300000000000517D00005C0400200006524558
:107D40005645414C00000000657D00007404002091
:107D5000000448494445000000000000757D000013
:107D6000A004002000015D0000000000857D0000EF
:107D7000B404002001015B00000000009D7D0000B4
:107D8000C8040020010752454355525345000000E6
:107D900000000000B17D0000E00400200105444F18
:107DA00045533E0000000000C97D00000005002092
:107DB000000728444F45533E290000000000000002
:107DC000DD7D0000A00500200006435245415445DA
:107DD00000000000F17D0000300500200004555334
:107DE0004552000000000000097E00004C05002004
:107DF0000008434F4E5354414E5400000000000011
:107E0000217E000068050020000856415249414289
:107E10004C45000000000000397E00009405002061
:107E200000073C4255494C4453000000000000004C
:107E30004D7E0000C40500200006484541444552DF
:107E4000000000005D7E00001C06002001012800EB
:107E500000000000717E00003406002001065B4334
:107E60004841525D00000000857E00005006002061
:107E7000000443484152000000000000957E0000CD
:107E8000680600200001270000000000A97E000015
:107E900090060020010641424F525422000000008B
:107EA000BD7E0000A806002000063F41424F52540C
:107EB00000000000D17E0000C806002000054142FD
:107EC0004F52540000000000E57E0000D80600205C
:107ED000000451554954000000000000FD7E0000E0
:107EE0004407002000084556414C554154450000C8
:107EF00000000000157F0000880700200009494E9F
:107F00005445525052455400000000002D7F00009F
:107F10004008002000073F4E554D424552000000EA
:107F200000000000457F0000A408002000073E4E2E
:107F3000554D42455200000000000000597F0000EE
:107F40000809002000053F5349474E00000000008B
:107F50006D7F000058090020000644494749543FFE
:107F600000000000857F0000BC09002001074C498B
:107F7000544552414C00000000000000997F000071
:107F8000E4090020000446494E44000000000000BF
:107F9000AD7F00005C0A00200006494D4D45443F7E
:107FA00000000000C57F0000740A002000074E4654
:107FB000413E43464100000000000000DD7F00001C
:107FC0008C0A002000074E46413E4C46410000000E
:107FD00000000000ED7F0000A00A002001022E2218
:107FE00000000000FD7F0000B80A002001025322BB
:107FF0000000000011800000E80A0020000428535F
:10800000222900000000000025800000080B00204D
:108010000004574F52440000000000003980000067
:10802000580B00200005504152534500000000004D
:108030004D800000A40B002000064144523E494EF2
:108040000000000065800000D00B002000083E43C7
:108050004F554E5445440000000000007D80000054
:10806000EC0B002000072F535452494E47000000EC
:1080700000000000918000000C0C00200006534F0F
:108080005552434500000000A58000001C0C002054
:10809000000348455800000000000000BD800000BB
:1080A000340C00200007444543494D414C0000007A
:1080B00000000000CD8000004C0C002000012E00CC
:1080C00000000000DD8000007C0C00200002552E26
:1080D00000000000F18000009C0C002000045349C7
:1080E000474E00000000000001810000BC0C002091
:1080F0000002233E0000000011810000E00C00207F
:10810000000223530000000021810000000D002028
:10811000000123000000000035810000200D002038
:1081200000063E44494749540000000045810000D4
:10813000540D002000023C23000000005981000083
:108140006C0D00200004484F4C440000000000006B
:108150006D8100008C0D0020000355442A000000B2
:108160000000000081810000B80D00200006554489
:108170002F4D4F440000000095810000E40D0020C9
:10818000000454595045000000000000A98100007F
:10819000280E0020000641434345505400000000D3
:1081A000BD810000D40E00200006535041434553CA
:1081B00000000000D1810000FC0E0020000553509B
:1081C0004143450000000000E1810000100F002045
:1081D0000002435200000000F5810000300F002033
:1081E0000005434F554E5400000000000982000076
:1081F0006C0F0020000543454C4C5300000000006C
:108200001D8200007C0F00200004554D494E0000E7
:1082100000000000318200009C0F00200004554D3A
:10822000415800000000000045820000BC0F002003
:1082300000034D494E00000000000000598200007C
:10824000DC0F002000034D4158000000000000003A
:1082500069820000FC0F002000022A2F00000000AD
:108260007D8200000C10002000052A2F4D4F440095
:1082700000000000918200002410002000034D4FF8
:108280004400000000000000A18200003410002023
:1082900000012F0000000000B58200004410002003
:1082A00000042F4D4F44000000000000C582000074
:1082B0005C10002000012A0000000000D9820000AC
:1082C0006C1000200006464D2F4D4F44000000006A
:1082D000ED820000E81000200006534D2F52454D5E
:1082E00000000000FD8200003011002000024D2A35
:1082F00000000000118300006011002000044441D0
:10830000425300000000000029830000701100208B
:1083100000083F444E45474154450000000000001E
:1083200041830000881100200007444E4547415416
:10833000450000000000000055830000A811002047
:108340000003414253000000000000006D83000064
:10835000B811002000073F4E45474154450000003A
:108360000000000081830000D01100200003533E74
:10837000440000000000000095830000E011002090
:108380000005324F5645520000000000A98300004E
:108390000012002000053253574150000000000039
:1083A000BD83000018120020000432445550000024
:1083B00000000000D1830000281200200005324494
:1083C000524F500000000000E183000038120020EE
:1083D0000002322100000000F1830000541200204E
:1083E00000023240000000000584000070120020EE
:1083F00000052C4E4F4E450000000000198400007F
:108400008012002000052144455354000000000064
:108410002D8400009812002000052C444553540080
:108420000000000045840000AC12002000072C4230
:1084300052414E43480000000000000059840000F3
:10844000B812002000052C455849540000000000D7
:108450006D840000480F0020000621434F4C4F4E12
:108460000000000081840000CC12002000032C4397
:10847000460000000000000095840000E412002087
:10848000000321434600000000000000AD8400000E
:10849000F01200200008434F4D50494C452C00007D
:1084A00000000000C1840000FC12002000053E42D4
:1084B0004F44590000000000D584000048130020FC
:1084C0000005434841522B0000000000E9840000F1
:1084D00058130020000543454C4C2B0000000000C1
:1084E000FD840000681300200005414C49474E0000
:1084F0000000000015850000801300200007414C9B
:1085000049474E454400000000000000258500005A
:10851000A41300200002432C000000003585000059
:10852000C013002000012C0000000000498500005D
:10853000D81300200005414C4C4F540000000000AF
:108540005D850000E8130020000448455245000006
:108550000000000071850000F8130020000543486A
:1085600041525300000000008585000000140020E7
:10857000000443454C4C00000000000095850000BD
:108580000814002000022D3100000000A585000025
:10859000101400200001330000000000B585000029
:1085A000181400200001320000000000C585000002
:1085B000201400200001310000000000D5850000DB
:1085C000281400200001300000000000E5850000B4
:1085D000301400200002424C00000000FD85000025
:1085E00038140020000754494253495A45000000FE
:1085F00000000000118600004014002000035449D0
:108600004200000000000000218600004814002005
:10861000000252300000000031860000501400209B
:108620000002533000000000418600005814002072
:1086300000024C300000000055860000601400204D
:108640000003504144000000000000006986000063
:1086500068140020000523494E4954000000000022
:108660007D86000070140020000555494E495400D5
:108670000000000091860000A414002000064E4572
:108680005745535400000000A1860000AC140020A0
:1086900000024C5000000000B1860000B41400201D
:1086A0000002485000000000C5860000BC140020F5
:1086B00000064C415445535400000000DD86000084
:1086C000C4140020000727534F55524345000000B3
:1086D00000000000ED860000CC1400200002445091
:1086E0000000000001870000D4140020000553544E
:1086F000415445000000000015870000DC140020F4
:10870000000442415345000000000000298700009A
:10871000E414002000033E494E0000000000000069
:1087200039870000EC1400200002553000000000E2
:108730004D870000F414002000034259450000005A
:1087400000000000618700000815002000044B4570
:10875000593F000000000000758700000C15002044
:108760000004454D495400000000000089870000C6
:108770001015002000034B455900000000000000C8
:10878000998700001415002000024E3D00000000F3
:10879000A9870000181500200002533D00000000CA
:1087A000BD8700001C15002000045343414E00000B
:1087B00000000000D1870000201500200004534B6A
:1087C0004950000000000000E5870000241500204B
:1087D0000004492D3E44000000000000F98700001D
:1087E000281500200006434D4F56453E000000006E
:1087F0000D8800002C1500200005434D4F56450004
:1088000000000000218800003015002000044649C7
:108810004C4C00000000000035880000341500209A
:108820000006554D2F4D4F440000000049880000C0
:10883000381500200003554D2A00000000000000FC
:108840005D8800003C1500200006554E4C4F4F50EF
:10885000000000006D8800004015002000014A0063
:10886000000000007D880000441500200001490040
:1088700000000000918800004815002000042864D2
:108880006F29000000000000A58800004C150020A2
:108890000006286C6F6F702900000000BD88000082
:1088A000501500200007282B6C6F6F702900000006
:1088B00000000000D58800005415002000073F622A
:1088C00072616E636800000000000000E98800002B
:1088D0005815002000066272616E63680000000097
:1088E000F98800005C1500200002553E00000000E1
:1088F00009890000601500200002553C00000000BE
:10890000198900006415002000013E0000000000ED
:10891000298900006815002000013C0000000000CB
:10892000398900006C15002000023C3E0000000068
:10893000498900007015002000013D000000000082
:1089400059890000741500200002303C000000002E
:1089500069890000781500200002303D0000000009
:108960007D8900007C15002000065253484946547A
:1089700000000000918900008015002000064C5383
:108980004849465400000000A189000084150020D9
:108990000002322F00000000B1890000881500207D
:1089A0000002322A00000000C18900008C1500205E
:1089B00000023E3C00000000D1890000901500201C
:1089C0000002312D00000000E18900009415002014
:1089D0000002312B00000000F589000098150020EE
:1089E00000064E454741544500000000098A00003A
:1089F0009C1500200006494E5645525400000000C8
:108A00001D8A0000A01500200003584F52000000EE
:108A1000000000002D8A0000A415002000024F5223
:108A200000000000418A0000A81500200003414E0C
:108A30004400000000000000518A0000AC15002036
:108A400000012F0000000000618A0000B015002026
:108A500000012A0000000000718A0000B415002007
:108A600000012D0000000000818A0000B8150020E0
:108A700000024D2B00000000918A0000BC15002070
:108A800000022B2100000000A18A0000C015002078
:108A900000012B0000000000B58A0000C415002072
:108AA000000348432100000000000000C98A0000C4
:108AB000C8150020000348434000000000000000EB
:108AC000D98A0000CC1500200002482100000000D7
:108AD000E98A0000D0150020000248400000000094
:108AE000FD8A0000C4150020000349432100000056
:108AF00000000000118B0000C8150020000349434E
:108B00004000000000000000218B0000CC15002078
:108B10000002492100000000318B0000D015002028
:108B20000002494000000000418B0000C4150020F5
:108B30000002432100000000518B0000C8150020F6
:108B40000002434000000000618B0000CC150020B3
:108B50000001210000000000718B0000D0150020F2
:108B60000001400000000000858B0000D4150020AB
:108B7000000352502100000000000000998B00000B
:108B8000D8150020000352504000000000000000F3
:108B9000AD8B0000DC1500200003535021000000C5
:108BA00000000000C18B0000E015002000035350BE
:108BB0004000000000000000D18B0000E415002000
:108BC0000002524000000000E18B0000E815002088
:108BD0000002523E00000000F18B0000EC15002066
:108BE00000023E5200000000058C0000F01500203D
:108BF00000045455434B000000000000198C000095
:108C0000F415002000034E49500000000000000051
:108C10002D8C0000F81500200003524F5400000076
:108C200000000000418C0000FC15002000044F569D
:108C30004552000000000000558C00000016002086
:108C4000000453574150000000000000698C0000F0
:108C500004160020000444524F50000000000000A1
:108C60007D8C00000816002000043F445550000091
:108C700000000000918C00000C16002000034455F9
:108C80005000000000000000A58C0000101600201D
:108C900000036C697400000000000000BD8C00003F
:108CA0001416002000074558454355544500000060
:108CB00000000000000000001816002000044558C5
:108CC0004954000000002243616D656C466F727468
:108CD0006820696E20432076302E31202D203134DB
:108CE00020466562203230313600013F00036F6B51
:108CF0002000202532780020253878000A25387891
:108D00003A00202530327800202564000A0A636189
:108D10006D656C666F72746828290A0A000000008D
:108D20000000000000000000000000000000000043
:108D30000000000000000000000000000000000033
:108D40000000000000000000000000000000000023
:108D50000000000000000000000000000000000013
:108D60000000000000000000000000000000000003
:108D700000000000000000000000000000000000F3
:108D8000232D302B2000686C4C00656667454647F4
:108D90000030313233343536373839414243444577
:108DA00046003031323334353637383961626364E6
:108DB00065660000F8B500BFF8BC08BC9E46704769
:108DC00089420000F8B500BFF8BC08BC9E46704759
:048DD00065420000F8
:088DD40090E0FF7F01000000A8
:108DDC0000000000A54200001000002065000020EB
:108DEC001201000202000040EB0304240001000009
:108DFC000001090243000201008032090400000155
:108E0C0002020000052400011005240101000424C5
:108E1C00020205240600010705820340000A09042A
:108E2C000100020A000000070501024000000705CE
:108E3C0081024000000000007162000070140020EC
:108E4C00EC140020681400202415002010160020BB
:108E5C00C68C0000300F0020E40D0020100F002005
:108E6C00C806002071620000BC140020D015002040
:108E7C000C160020300F0020101600207F00000080
:108E8C00A8150020E40D0020FC0E00208C0A002008
:108E9C00D01500200C160020781500205415002049
:108EAC00D0FFFFFF0416002018160020716200008E
:108EBC00BC140020D0150020E8130020E81300207B
:108ECC0094050020C0130020C0130020C013002004
:108EDC0000050020716200000C160020D015002047
:108EEC0000160020581300200C160020D01500206E
:108EFC000016002058130020D0150020BC140020B0
:108F0C00CC150020CC140020CC150020CC14002053
:108F1C00CC150020181600207162000028120020C9
:108F2C00281400201816002071620000E0150020A3
:108F3C005014002000160020B4150020001400204E
:108F4C00341000201816002071620000EC1500206F
:108F5C0018120020001600200C160020E41500202A
:108F6C00C0150020BC010020541500201400000086
:108F7C00E815002028150020581500200C000000D2
:108F8C00E81500202C150020181600207162000036
:108F9C00FC150020B4150020EC150020B4150020A1
:108FAC00E8150020601500201816002071620000E2
:108FBC00101600203C150020F01200201016002086
:108FCC0058150020AC120020E8130020701200206D
:108FDC00A00200201816002071620000101600205C
:108FEC00501500203002002018160020716200007D
:108FFC00101600204C1500203002002018160020FE
:10900C0071620000AC120020981200207C0200203B
:10901C00081600205415002010000000400300200A
:10902C0058150020E8FFFFFF1816002071620000A1
:10903C001016002048150020F0120020E813002024
:10904C0028140020A00200201816002071620000D5
:10905C00AC140020D0150020D015002000140020E6
:10906C0098150020AC140020BC1500201816002008
:10907C007162000000140020AC140020BC1500200C
:10908C00AC140020D0150020CC15002018160020A0
:10909C0071620000E002002040030020181600203E
:1090AC0071620000540300200016002018160020E6
:1090BC00716200001016002058150020AC12002020
:1090CC009812002018160020716200001016002063
:1090DC0054150020AC120020981200201816002005
:1090EC0071620000E8130020181600207162000065
:1090FC001016002058150020AC120020E813002098
:10910C0070120020001600204003002018160020CA
:10911C0071620000E813002000160020801200206D
:10912C001816002071620000101600205415002043
:10913C00AC120020E813002070120020181600203A
:10914C0071620000E81500200C1600205813002056
:10915C00EC150020D0150020F0120020181600206D
:10916C007162000030140020080B0020E40900207C
:10917C000C1600207815002010160020EA8C000038
:10918C00300F0020A8060020741500205415002074
:10919C00280000001016002010160020F0120020ED
:1091AC00C013002010160020F0120020F012002036
:1091BC005815002008000000F0120020181600209E
:1091CC0071620000680600201016002010160020A6
:1091DC00F0120020C013002018160020716200004D
:1091EC005C040020B8120020B404002018160020E3
:1091FC00716200009405002074040020A00400207B
:10920C00480F002018160020716200002014002066
:10921C00BC140020D015002020140020F8130020CE
:10922C00B4150020C415002018160020716200002F
:10923C00A4140020D0150020BC140020CC15002054
:10924C001816002071620000BC140020D0150020FC
:10925C000C160020A4140020CC1500208C0A002031
:10926C00D0150020BC140020CC15002018160020AE
:10927C007162000008140020D4140020CC150020CA
:10928C00181600207162000028140020D41400204D
:10929C00CC1500201816002071620000A4140020C8
:1092AC00D0150020740A0020F0120020181600209F
:1092BC00716200001016002000050020F012002042
:1092CC001016002071620000C01300201816002038
:1092DC0071620000E8150020BC140020D01500209D
:1092EC00740A002010160020C5620000FC15002036
:1092FC00E412002058130020CC1500201816002072
:10930C0071620000C405002010160020916200005C
:10931C00CC120020C013002018160020716200002F
:10932C00C40500201016002041620000CC12002061
:10933C00C01300201816002071620000C405002024
:10934C001016002055620000CC120020E8130020FB
:10935C0058130020C013002000140020D813002044
:10936C001816002071620000A005002018160020BD
:10937C0071620000C405002010160020B1620000CC
:10938C00CC120020E813002058130020C01300203A
:10939C001816002071620000BC140020D0150020AB
:1093AC00C0130020E813002000140020D813002064
:1093BC0028140020A4130020E8130020BC14002063
:1093CC00CC15002030140020080B0020C8150020FC
:1093DC0094150020D813002068130020E8130020F7
:1093EC0000160020CC150020181600207162000019
:1093FC001016002029000000580B00202812002015
:10940C001816002071620000500600201016002073
:10941C0010160020F0120020C01300201816002097
:10942C007162000030140020080B002094150020FD
:10943C00C81500201816002071620000301400209E
:10944C00080B0020E40900207815002010160020DD
:10945C00EA8C0000300F0020A8060020181600200F
:10946C0071620000B80A002010160020A806002027
:10947C00F01200201816002071620000F815002070
:10948C00541500200C000000E40D0020C80600203C
:10949C0028120020181600207162000050140020C1
:1094AC00DC150020D8060020716200005814002042
:1094BC00AC140020CC15002048140020D41500203A
:1094CC0028140020D4140020CC15002040140020B7
:1094DC000C16002038140020280E0020FC0E002052
:1094EC0088070020100F0020D4140020D015002075
:1094FC0078150020541500201400000010160020D0
:10950C00ED8C0000300F0020E40D002058150020D9
:10951C00BCFFFFFF71620000C41400205412002035
:10952C00EC150020EC150020E4140020D0150020D0
:10953C00EC15002088070020E8150020E41400201A
:10954C00CC150020E8150020E8150020C4140020DC
:10955C00381200201816002071620000C41400207C
:10956C003812002028140020E4140020CC15002010
:10957C0030140020080B00200C160020C815002009
:10958C005415002084000000E40900200816002077
:10959C00541500203800000094150020D41400202D
:1095AC00D015002078150020A4150020541500209B
:1095BC0010000000141600205815002008000000B0
:1095CC00F012002058150020380000004008002040
:1095DC005415002010000000BC0900205815002074
:1095EC0020000000300F0020E40D00201016002099
:1095FC003F0000000C150020100F0020C8060020B2
:10960C00581500206CFFFFFF0416002018160020D0
:10961C00716200000C160020281400200C1600208B
:10962C00F8150020300F002008090020EC15002050
:10963C00A4080020541500201C000000E815002090
:10964C002812002028120020281400205815002071
:10965C002000000028120020F4150020E81500203E
:10966C005415002008000000981500200814002054
:10967C0018160020716200000C16002054150020F2
:10968C0054000000FC150020C815002058090020CB
:10969C0078150020541500200C0000000416002042
:1096AC0018160020EC15002000120020DC140020FD
:1096BC00D01500208C0D0020E8150020B8150020D6
:1096CC000012002020140020EC0B00205815002064
:1096DC00A8FFFFFF1816002071620000FC15002087
:1096EC00C8150020101600202C000000B415002016
:1096FC000C160020A811002020140020701500204A
:10970C00A81500200C16002054150020180000008D
:10971C0094150020EC15002020140020EC0B0020E8
:10972C00E815002018160020716200000C160020AD
:10973C0010160020390000006415002010160020BF
:10974C0000010000A8150020C01500200C160020F8
:10975C001016002040010000641500201016002097
:10976C0007010000A8150020B415002010160020D9
:10977C0030000000B41500200C160020DC14002072
:10978C00D015002060150020181600207162000012
:10979C00D4140020D0150020541500201400000013
:1097AC001016002010160020F0120020C01300200C
:1097BC001816002071620000BC140020D015002087
:1097CC0018120020FC150020C8150020481300209A
:1097DC00141500200C160020541500201400000055
:1097EC00041600208C0A0020D01500200C16002036
:1097FC007815002054150020C8FFFFFF0C16002020
:10980C005415002024000000F41500200C16002034
:10981C00740A0020001600205C0A00207815002035
:10982C0020140020A41500201816002071620000DE
:10983C0090150020C815002020140020A815002029
:10984C0018160020716200001016002005000000A0
:10985C00B4150020D01500201816002071620000ED
:10986C001016002009000000B41500201816002066
:10987C0071620000B80A002010160020E40D0020D0
:10988C00F012002018160020716200001016002043
:10989C00E80A0020F0120020101600202200000020
:1098AC00080B0020C8150020941500208013002000
:1098BC00D81300201816002071620000E815002053
:1098CC00300F002018120020C0150020801300203B
:1098DC00EC15002018160020716200000C160020F8
:1098EC000C0C0020E4140020D0150020EC0B002000
:1098FC00F81500202015002004160020A40B0020D1
:10990C00580B0020E8130020D00B0020E813002097
:10991C0030140020FC150020300F0020C015002052
:10992C00C415002018160020716200000C0C0020D9
:10993C00E4140020D0150020EC0B0020FC150020B6
:10994C00EC150020F81500201C150020FC1500203B
:10995C0000160020541500200800000048130020B9
:10996C00A40B0020E8150020F0150020B4150020F1
:10997C0018160020716200000C0C0020F815002055
:10998C00F8150020B4150020BC0F0020281400206E
:10999C00DC0F0020E4140020CC1500201816002049
:1099AC007162000018120020C4150020481300201A
:1099BC00001600202C1500201816002071620000E3
:1099CC00F8150020FC150020C0150020F81500200B
:1099DC00F8150020B4150020181600207162000044
:1099EC00C4140020541200201816002071620000CC
:1099FC001016002010000000DC140020CC150020F4
:109A0C001816002071620000101600200A000000D9
:109A1C00DC140020CC150020181600207162000008
:109A2C00540D00200C160020A81100202814002032
:109A3C00E00C0020F81500209C0C0020BC0C002031
:109A4C00E40D0020FC0E00201816002071620000AE
:109A5C00540D002028140020E00C0020BC0C002029
:109A6C00E40D0020FC0E002018160020716200008E
:109A7C007415002054150020100000001016002052
:109A8C002D0000006C0D00201816002071620000E3
:109A9C0028120020B4140020D0150020101600202D
:109AAC0085210020FC150020B4150020181600207C
:109ABC0071620000000D002018120020A415002077
:109ACC007815002054150020ECFFFFFF181600201D
